{
  "_format": "hh-sol-artifact-1",
  "contractName": "Transactions",
  "sourceName": "contracts/Transactions.sol",
  "abi": [
    {
      "anonymous": false,
      "inputs": [
        {
          "indexed": false,
          "internalType": "address",
          "name": "from",
          "type": "address"
        },
        {
          "indexed": false,
          "internalType": "address",
          "name": "receiver",
          "type": "address"
        },
        {
          "indexed": false,
          "internalType": "uint256",
          "name": "amount",
          "type": "uint256"
        },
        {
          "indexed": false,
          "internalType": "string",
          "name": "message",
          "type": "string"
        },
        {
          "indexed": false,
          "internalType": "uint256",
          "name": "timestamp",
          "type": "uint256"
        },
        {
          "indexed": false,
          "internalType": "string",
          "name": "keyword",
          "type": "string"
        }
      ],
      "name": "Transfer",
      "type": "event"
    },
    {
      "inputs": [
        {
          "internalType": "address payable",
          "name": "receiver",
          "type": "address"
        },
        {
          "internalType": "uint256",
          "name": "amount",
          "type": "uint256"
        },
        {
          "internalType": "string",
          "name": "message",
          "type": "string"
        },
        {
          "internalType": "string",
          "name": "keyword",
          "type": "string"
        }
      ],
      "name": "addToBlockchain",
      "outputs": [],
      "stateMutability": "nonpayable",
      "type": "function"
    },
    {
      "inputs": [],
      "name": "getAllTransactions",
      "outputs": [
        {
          "components": [
            {
              "internalType": "address",
              "name": "sender",
              "type": "address"
            },
            {
              "internalType": "address",
              "name": "receiver",
              "type": "address"
            },
            {
              "internalType": "uint256",
              "name": "amount",
              "type": "uint256"
            },
            {
              "internalType": "string",
              "name": "message",
              "type": "string"
            },
            {
              "internalType": "uint256",
              "name": "timestamp",
              "type": "uint256"
            },
            {
              "internalType": "string",
              "name": "keyword",
              "type": "string"
            }
          ],
          "internalType": "struct Transactions.TransferStruct[]",
          "name": "",
          "type": "tuple[]"
        }
      ],
      "stateMutability": "view",
      "type": "function"
    },
    {
      "inputs": [],
      "name": "getTransactionCount",
      "outputs": [
        {
          "internalType": "uint256",
          "name": "",
          "type": "uint256"
        }
      ],
      "stateMutability": "view",
      "type": "function"
    }
  ],
  "bytecode": "0x608060405234801561001057600080fd5b50610e24806100206000396000f3fe608060405234801561001057600080fd5b50600436106100415760003560e01c806327506f53146100465780632e7700f014610064578063cc2d7ead14610082575b600080fd5b61004e61009e565b60405161005b91906106de565b60405180910390f35b61006c6102e1565b604051610079919061070f565b60405180910390f35b61009c600480360381019061009791906108dd565b6102ea565b005b60606001805480602002602001604051908101604052809291908181526020016000905b828210156102d857838290600052602060002090600602016040518060c00160405290816000820160009054906101000a900473ffffffffffffffffffffffffffffffffffffffff1673ffffffffffffffffffffffffffffffffffffffff1673ffffffffffffffffffffffffffffffffffffffff1681526020016001820160009054906101000a900473ffffffffffffffffffffffffffffffffffffffff1673ffffffffffffffffffffffffffffffffffffffff1673ffffffffffffffffffffffffffffffffffffffff168152602001600282015481526020016003820180546101ab906109ab565b80601f01602080910402602001604051908101604052809291908181526020018280546101d7906109ab565b80156102245780601f106101f957610100808354040283529160200191610224565b820191906000526020600020905b81548152906001019060200180831161020757829003601f168201915b5050505050815260200160048201548152602001600582018054610247906109ab565b80601f0160208091040260200160405190810160405280929190818152602001828054610273906109ab565b80156102c05780601f10610295576101008083540402835291602001916102c0565b820191906000526020600020905b8154815290600101906020018083116102a357829003601f168201915b505050505081525050815260200190600101906100c2565b50505050905090565b60008054905090565b6000808154809291906102fc90610a0b565b919050555060006040518060c001604052803373ffffffffffffffffffffffffffffffffffffffff1681526020018673ffffffffffffffffffffffffffffffffffffffff168152602001858152602001848152602001428152602001838152509050600181908060018154018082558091505060019003906000526020600020906006020160009091909190915060008201518160000160006101000a81548173ffffffffffffffffffffffffffffffffffffffff021916908373ffffffffffffffffffffffffffffffffffffffff16021790555060208201518160010160006101000a81548173ffffffffffffffffffffffffffffffffffffffff021916908373ffffffffffffffffffffffffffffffffffffffff1602179055506040820151816002015560608201518160030190816104379190610bff565b506080820151816004015560a08201518160050190816104579190610bff565b5050507f416cfa4330a4565f45c2fd2dd4826a83a37443aba2ce6f79477c7355afac35fa33868686428760405161049396959493929190610d7f565b60405180910390a15050505050565b600081519050919050565b600082825260208201905092915050565b6000819050602082019050919050565b600073ffffffffffffffffffffffffffffffffffffffff82169050919050565b60006104f9826104ce565b9050919050565b610509816104ee565b82525050565b6000819050919050565b6105228161050f565b82525050565b600081519050919050565b600082825260208201905092915050565b60005b83811015610562578082015181840152602081019050610547565b60008484015250505050565b6000601f19601f8301169050919050565b600061058a82610528565b6105948185610533565b93506105a4818560208601610544565b6105ad8161056e565b840191505092915050565b600060c0830160008301516105d06000860182610500565b5060208301516105e36020860182610500565b5060408301516105f66040860182610519565b506060830151848203606086015261060e828261057f565b91505060808301516106236080860182610519565b5060a083015184820360a086015261063b828261057f565b9150508091505092915050565b600061065483836105b8565b905092915050565b6000602082019050919050565b6000610674826104a2565b61067e81856104ad565b935083602082028501610690856104be565b8060005b858110156106cc57848403895281516106ad8582610648565b94506106b88361065c565b925060208a01995050600181019050610694565b50829750879550505050505092915050565b600060208201905081810360008301526106f88184610669565b905092915050565b6107098161050f565b82525050565b60006020820190506107246000830184610700565b92915050565b6000604051905090565b600080fd5b600080fd5b6000610749826104ce565b9050919050565b6107598161073e565b811461076457600080fd5b50565b60008135905061077681610750565b92915050565b6107858161050f565b811461079057600080fd5b50565b6000813590506107a28161077c565b92915050565b600080fd5b600080fd5b7f4e487b7100000000000000000000000000000000000000000000000000000000600052604160045260246000fd5b6107ea8261056e565b810181811067ffffffffffffffff82111715610809576108086107b2565b5b80604052505050565b600061081c61072a565b905061082882826107e1565b919050565b600067ffffffffffffffff821115610848576108476107b2565b5b6108518261056e565b9050602081019050919050565b82818337600083830152505050565b600061088061087b8461082d565b610812565b90508281526020810184848401111561089c5761089b6107ad565b5b6108a784828561085e565b509392505050565b600082601f8301126108c4576108c36107a8565b5b81356108d484826020860161086d565b91505092915050565b600080600080608085870312156108f7576108f6610734565b5b600061090587828801610767565b945050602061091687828801610793565b935050604085013567ffffffffffffffff81111561093757610936610739565b5b610943878288016108af565b925050606085013567ffffffffffffffff81111561096457610963610739565b5b610970878288016108af565b91505092959194509250565b7f4e487b7100000000000000000000000000000000000000000000000000000000600052602260045260246000fd5b600060028204905060018216806109c357607f821691505b6020821081036109d6576109d561097c565b5b50919050565b7f4e487b7100000000000000000000000000000000000000000000000000000000600052601160045260246000fd5b6000610a168261050f565b91507fffffffffffffffffffffffffffffffffffffffffffffffffffffffffffffffff8203610a4857610a476109dc565b5b600182019050919050565b60008190508160005260206000209050919050565b60006020601f8301049050919050565b600082821b905092915050565b600060088302610ab57fffffffffffffffffffffffffffffffffffffffffffffffffffffffffffffffff82610a78565b610abf8683610a78565b95508019841693508086168417925050509392505050565b6000819050919050565b6000610afc610af7610af28461050f565b610ad7565b61050f565b9050919050565b6000819050919050565b610b1683610ae1565b610b2a610b2282610b03565b848454610a85565b825550505050565b600090565b610b3f610b32565b610b4a818484610b0d565b505050565b5b81811015610b6e57610b63600082610b37565b600181019050610b50565b5050565b601f821115610bb357610b8481610a53565b610b8d84610a68565b81016020851015610b9c578190505b610bb0610ba885610a68565b830182610b4f565b50505b505050565b600082821c905092915050565b6000610bd660001984600802610bb8565b1980831691505092915050565b6000610bef8383610bc5565b9150826002028217905092915050565b610c0882610528565b67ffffffffffffffff811115610c2157610c206107b2565b5b610c2b82546109ab565b610c36828285610b72565b600060209050601f831160018114610c695760008415610c57578287015190505b610c618582610be3565b865550610cc9565b601f198416610c7786610a53565b60005b82811015610c9f57848901518255600182019150602085019450602081019050610c7a565b86831015610cbc5784890151610cb8601f891682610bc5565b8355505b6001600288020188555050505b505050505050565b610cda816104ee565b82525050565b6000610cfb610cf6610cf1846104ce565b610ad7565b6104ce565b9050919050565b6000610d0d82610ce0565b9050919050565b6000610d1f82610d02565b9050919050565b610d2f81610d14565b82525050565b600082825260208201905092915050565b6000610d5182610528565b610d5b8185610d35565b9350610d6b818560208601610544565b610d748161056e565b840191505092915050565b600060c082019050610d946000830189610cd1565b610da16020830188610d26565b610dae6040830187610700565b8181036060830152610dc08186610d46565b9050610dcf6080830185610700565b81810360a0830152610de18184610d46565b905097965050505050505056fea264697066735822122050d87137c10e2c2568665f987a9b26dc2e48bb0ce2a1ec6897caa1b25646a15764736f6c63430008110033",
  "linkReferences": {},
  "deployedLinkReferences": {}
}